{
  "contractName": "JiraContract",
  "abi": [
    {
      "constant": false,
      "inputs": [],
      "name": "withdrawPayments",
      "outputs": [],
      "payable": false,
      "stateMutability": "nonpayable",
      "type": "function"
    },
    {
      "constant": true,
      "inputs": [
        {
          "name": "_dest",
          "type": "address"
        }
      ],
      "name": "payments",
      "outputs": [
        {
          "name": "",
          "type": "uint256"
        }
      ],
      "payable": false,
      "stateMutability": "view",
      "type": "function"
    },
    {
      "constant": true,
      "inputs": [
        {
          "name": "",
          "type": "bytes32"
        }
      ],
      "name": "receipts",
      "outputs": [
        {
          "name": "",
          "type": "uint32"
        }
      ],
      "payable": false,
      "stateMutability": "view",
      "type": "function"
    },
    {
      "inputs": [],
      "payable": false,
      "stateMutability": "nonpayable",
      "type": "constructor"
    },
    {
      "anonymous": false,
      "inputs": [
        {
          "indexed": false,
          "name": "id",
          "type": "bytes32"
        }
      ],
      "name": "ChainlinkRequested",
      "type": "event"
    },
    {
      "anonymous": false,
      "inputs": [
        {
          "indexed": false,
          "name": "id",
          "type": "bytes32"
        }
      ],
      "name": "ChainlinkFulfilled",
      "type": "event"
    },
    {
      "anonymous": false,
      "inputs": [
        {
          "indexed": false,
          "name": "id",
          "type": "bytes32"
        }
      ],
      "name": "ChainlinkCancelled",
      "type": "event"
    },
    {
      "constant": false,
      "inputs": [
        {
          "name": "issueType",
          "type": "uint8"
        },
        {
          "name": "assignee",
          "type": "address"
        },
        {
          "name": "desc",
          "type": "string"
        },
        {
          "name": "rewardAmt",
          "type": "uint256"
        },
        {
          "name": "repositoryOwner",
          "type": "string"
        },
        {
          "name": "repositoryName",
          "type": "string"
        }
      ],
      "name": "createIssue",
      "outputs": [
        {
          "name": "",
          "type": "uint32"
        }
      ],
      "payable": false,
      "stateMutability": "nonpayable",
      "type": "function"
    },
    {
      "constant": true,
      "inputs": [],
      "name": "returnIssuesCount",
      "outputs": [
        {
          "name": "",
          "type": "uint32"
        }
      ],
      "payable": false,
      "stateMutability": "view",
      "type": "function"
    },
    {
      "constant": true,
      "inputs": [
        {
          "name": "issueId",
          "type": "uint32"
        }
      ],
      "name": "getIssue",
      "outputs": [
        {
          "name": "",
          "type": "uint256"
        },
        {
          "name": "",
          "type": "address"
        },
        {
          "name": "",
          "type": "string"
        },
        {
          "name": "",
          "type": "uint256"
        },
        {
          "name": "",
          "type": "uint256"
        },
        {
          "name": "",
          "type": "address"
        }
      ],
      "payable": false,
      "stateMutability": "view",
      "type": "function"
    },
    {
      "constant": true,
      "inputs": [
        {
          "name": "issueId",
          "type": "uint32"
        }
      ],
      "name": "getIssueDevDetails",
      "outputs": [
        {
          "name": "",
          "type": "string"
        },
        {
          "name": "",
          "type": "string"
        },
        {
          "name": "",
          "type": "string"
        }
      ],
      "payable": false,
      "stateMutability": "view",
      "type": "function"
    },
    {
      "constant": false,
      "inputs": [
        {
          "name": "issueId",
          "type": "uint32"
        }
      ],
      "name": "closeIssue",
      "outputs": [],
      "payable": false,
      "stateMutability": "nonpayable",
      "type": "function"
    },
    {
      "constant": true,
      "inputs": [
        {
          "name": "x",
          "type": "bytes32"
        }
      ],
      "name": "bytes32ToString",
      "outputs": [
        {
          "name": "",
          "type": "string"
        }
      ],
      "payable": false,
      "stateMutability": "view",
      "type": "function"
    },
    {
      "constant": false,
      "inputs": [
        {
          "name": "issueId",
          "type": "uint32"
        }
      ],
      "name": "createRepoIssue",
      "outputs": [
        {
          "name": "",
          "type": "bytes32"
        }
      ],
      "payable": true,
      "stateMutability": "payable",
      "type": "function"
    },
    {
      "constant": false,
      "inputs": [
        {
          "name": "_requestId",
          "type": "bytes32"
        },
        {
          "name": "repoIssueId",
          "type": "bytes32"
        }
      ],
      "name": "createRepoIssueCallback",
      "outputs": [],
      "payable": false,
      "stateMutability": "nonpayable",
      "type": "function"
    },
    {
      "constant": false,
      "inputs": [
        {
          "name": "repositoryOwner",
          "type": "string"
        },
        {
          "name": "repositoryName",
          "type": "string"
        },
        {
          "name": "repoIssueId",
          "type": "string"
        }
      ],
      "name": "getIssueStage",
      "outputs": [
        {
          "name": "",
          "type": "uint256"
        }
      ],
      "payable": true,
      "stateMutability": "payable",
      "type": "function"
    },
    {
      "constant": false,
      "inputs": [
        {
          "name": "_requestId",
          "type": "bytes32"
        },
        {
          "name": "issueStage",
          "type": "bytes32"
        }
      ],
      "name": "requestedDataCallback",
      "outputs": [],
      "payable": false,
      "stateMutability": "nonpayable",
      "type": "function"
    },
    {
      "constant": false,
      "inputs": [
        {
          "name": "dest",
          "type": "address"
        },
        {
          "name": "amount",
          "type": "uint256"
        }
      ],
      "name": "creditTransfer",
      "outputs": [],
      "payable": true,
      "stateMutability": "payable",
      "type": "function"
    },
    {
      "constant": true,
      "inputs": [
        {
          "name": "assignee",
          "type": "address"
        }
      ],
      "name": "checkReward",
      "outputs": [
        {
          "name": "",
          "type": "uint256"
        }
      ],
      "payable": false,
      "stateMutability": "view",
      "type": "function"
    },
    {
      "constant": false,
      "inputs": [],
      "name": "withdrawReward",
      "outputs": [],
      "payable": false,
      "stateMutability": "nonpayable",
      "type": "function"
    }
  ],
  "bytecode": "0x608060405260016002553480156200001657600080fd5b5062000021620001a9565b604051809103906000f0801580156200003e573d6000803e3d6000fd5b50600660006101000a81548173ffffffffffffffffffffffffffffffffffffffff021916908373ffffffffffffffffffffffffffffffffffffffff16021790555033600760006101000a81548173ffffffffffffffffffffffffffffffffffffffff021916908373ffffffffffffffffffffffffffffffffffffffff160217905550620000ee7301be23585060835e02b77ef475b0cc51aa1e070962000122640100000000026401000000009004565b6200011c73f18455e70984e8fda0adbe2c8dd21509dbefa21862000165640100000000026401000000009004565b620001ba565b806000806101000a81548173ffffffffffffffffffffffffffffffffffffffff021916908373ffffffffffffffffffffffffffffffffffffffff16021790555050565b80600160006101000a81548173ffffffffffffffffffffffffffffffffffffffff021916908373ffffffffffffffffffffffffffffffffffffffff16021790555050565b60405161085180620038b783390190565b6136ed80620001ca6000396000f3006080604052600436106100e6576000357c0100000000000000000000000000000000000000000000000000000000900463ffffffff168063559e99f6146100eb578063583f2ca11461012d5780636103d70b1461016057806364dc8a2c146101775780639201de551461029e578063b9e6fa2814610348578063bf8ed3d514610387578063c3c90e641461050b578063c885bc5814610562578063ced336e714610579578063e2982c21146105b0578063e530c0f014610607578063ed8f99f314610703578063ef6cf04d14610742578063f6b2823914610793578063f90aebad146108df575b600080fd5b61010f600480360381019080803563ffffffff16906020019092919050505061091f565b60405180826000191660001916815260200191505060405180910390f35b34801561013957600080fd5b5061015e600480360381019080803563ffffffff169060200190929190505050611290565b005b34801561016c57600080fd5b506101756112d7565b005b34801561018357600080fd5b506101a8600480360381019080803563ffffffff1690602001909291905050506113b4565b604051808781526020018673ffffffffffffffffffffffffffffffffffffffff1673ffffffffffffffffffffffffffffffffffffffff168152602001806020018581526020018481526020018373ffffffffffffffffffffffffffffffffffffffff1673ffffffffffffffffffffffffffffffffffffffff168152602001828103825286818151815260200191508051906020019080838360005b8381101561025e578082015181840152602081019050610243565b50505050905090810190601f16801561028b5780820380516001836020036101000a031916815260200191505b5097505050505050505060405180910390f35b3480156102aa57600080fd5b506102cd60048036038101908080356000191690602001909291905050506115b0565b6040518080602001828103825283818151815260200191508051906020019080838360005b8381101561030d5780820151818401526020810190506102f2565b50505050905090810190601f16801561033a5780820380516001836020036101000a031916815260200191505b509250505060405180910390f35b34801561035457600080fd5b50610385600480360381019080803560001916906020019092919080356000191690602001909291905050506117ac565b005b34801561039357600080fd5b506103b8600480360381019080803563ffffffff16906020019092919050505061199d565b60405180806020018060200180602001848103845287818151815260200191508051906020019080838360005b838110156104005780820151818401526020810190506103e5565b50505050905090810190601f16801561042d5780820380516001836020036101000a031916815260200191505b50848103835286818151815260200191508051906020019080838360005b8381101561046657808201518184015260208101905061044b565b50505050905090810190601f1680156104935780820380516001836020036101000a031916815260200191505b50848103825285818151815260200191508051906020019080838360005b838110156104cc5780820151818401526020810190506104b1565b50505050905090810190601f1680156104f95780820380516001836020036101000a031916815260200191505b50965050505050505060405180910390f35b34801561051757600080fd5b5061054c600480360381019080803573ffffffffffffffffffffffffffffffffffffffff169060200190929190505050611be9565b6040518082815260200191505060405180910390f35b34801561056e57600080fd5b50610577611bfb565b005b34801561058557600080fd5b5061058e611c05565b604051808263ffffffff1663ffffffff16815260200191505060405180910390f35b3480156105bc57600080fd5b506105f1600480360381019080803573ffffffffffffffffffffffffffffffffffffffff169060200190929190505050611c1f565b6040518082815260200191505060405180910390f35b6106ed600480360381019080803590602001908201803590602001908080601f0160208091040260200160405190810160405280939291908181526020018383808284378201915050505050509192919290803590602001908201803590602001908080601f0160208091040260200160405190810160405280939291908181526020018383808284378201915050505050509192919290803590602001908201803590602001908080601f0160208091040260200160405190810160405280939291908181526020018383808284378201915050505050509192919290505050611d20565b6040518082815260200191505060405180910390f35b34801561070f57600080fd5b5061074060048036038101908080356000191690602001909291908035600019169060200190929190505050611fa9565b005b34801561074e57600080fd5b506107716004803603810190808035600019169060200190929190505050612130565b604051808263ffffffff1663ffffffff16815260200191505060405180910390f35b34801561079f57600080fd5b506108bd600480360381019080803560ff169060200190929190803573ffffffffffffffffffffffffffffffffffffffff169060200190929190803590602001908201803590602001908080601f016020809104026020016040519081016040528093929190818152602001838380828437820191505050505050919291929080359060200190929190803590602001908201803590602001908080601f0160208091040260200160405190810160405280939291908181526020018383808284378201915050505050509192919290803590602001908201803590602001908080601f0160208091040260200160405190810160405280939291908181526020018383808284378201915050505050509192919290505050612153565b604051808263ffffffff1663ffffffff16815260200191505060405180910390f35b61091d600480360381019080803573ffffffffffffffffffffffffffffffffffffffff1690602001909291908035906020019092919050505061241c565b005b60008061092a6134f7565b6060806060807f636465383432386239396233343364323934643339353835336166383634343195506109ba8630606060405190810160405280602881526020017f6372656174655265706f497373756543616c6c6261636b28627974657333322c81526020017f627974657333322900000000000000000000000000000000000000000000000081525061242a565b9450610c256040805190810160405280600381526020017f75726c0000000000000000000000000000000000000000000000000000000000815250610c156040805190810160405280601d81526020017f68747470733a2f2f6170692e6769746875622e636f6d2f7265706f732f000000815250600860008d63ffffffff1663ffffffff1681526020019081526020016000206004018054600181600116156101000203166002900480601f016020809104026020016040519081016040528092919081815260200182805460018160011615610100020316600290048015610ae45780601f10610ab957610100808354040283529160200191610ae4565b820191906000526020600020905b815481529060010190602001808311610ac757829003601f168201915b50505050506040805190810160405280600181526020017f2f00000000000000000000000000000000000000000000000000000000000000815250600860008f63ffffffff1663ffffffff1681526020019081526020016000206005018054600181600116156101000203166002900480601f016020809104026020016040519081016040528092919081815260200182805460018160011615610100020316600290048015610bd55780601f10610baa57610100808354040283529160200191610bd5565b820191906000526020600020905b815481529060010190602001808311610bb857829003601f168201915b50505050506040805190810160405280600781526020017f2f6973737565730000000000000000000000000000000000000000000000000081525061245b565b876128709092919063ffffffff16565b6001604051908082528060200260200182016040528015610c5a57816020015b6060815260200190600190039081610c455790505b5093506040805190810160405280600681526020017f6e756d6265720000000000000000000000000000000000000000000000000000815250846000815181101515610ca257fe5b90602001906020020181905250610cf96040805190810160405280600481526020017f706174680000000000000000000000000000000000000000000000000000000081525085876128a39092919063ffffffff16565b6000600860008a63ffffffff1663ffffffff16815260200190815260200160002060000160049054906101000a900460ff166002811115610d3657fe5b14610df4576001600860008a63ffffffff1663ffffffff16815260200190815260200160002060000160049054906101000a900460ff166002811115610d7857fe5b14610db8576040805190810160405280600881526020017f7175657374696f6e000000000000000000000000000000000000000000000000815250610def565b6040805190810160405280600381526020017f62756700000000000000000000000000000000000000000000000000000000008152505b610e2b565b6040805190810160405280600b81526020017f656e68616e63656d656e740000000000000000000000000000000000000000008152505b9250610e776040805190810160405280600581526020017f7469746c6500000000000000000000000000000000000000000000000000000081525084876128709092919063ffffffff16565b610f7b6040805190810160405280600481526020017f626f647900000000000000000000000000000000000000000000000000000000815250600860008b63ffffffff1663ffffffff1681526020019081526020016000206002018054600181600116156101000203166002900480601f016020809104026020016040519081016040528092919081815260200182805460018160011615610100020316600290048015610f665780601f10610f3b57610100808354040283529160200191610f66565b820191906000526020600020905b815481529060010190602001808311610f4957829003601f168201915b5050505050876128709092919063ffffffff16565b6001604051908082528060200260200182016040528015610fb057816020015b6060815260200190600190039081610f9b5790505b509150600860008963ffffffff1663ffffffff1681526020019081526020016000206004018054600181600116156101000203166002900480601f0160208091040260200160405190810160405280929190818152602001828054600181600116156101000203166002900480156110695780601f1061103e57610100808354040283529160200191611069565b820191906000526020600020905b81548152906001019060200180831161104c57829003601f168201915b505050505082600081518110151561107d57fe5b906020019060200201819052506110d46040805190810160405280600981526020017f61737369676e656573000000000000000000000000000000000000000000000081525083876128a39092919063ffffffff16565b600160405190808252806020026020018201604052801561110957816020015b60608152602001906001900390816110f45790505b5090508281600081518110151561111c57fe5b906020019060200201819052506111736040805190810160405280600681526020017f6c6162656c73000000000000000000000000000000000000000000000000000081525082876128a39092919063ffffffff16565b6111f26040805190810160405280600c81526020017f436f6e74656e742d5479706500000000000000000000000000000000000000008152506040805190810160405280601081526020017f6170706c69636174696f6e2f6a736f6e00000000000000000000000000000000815250876128709092919063ffffffff16565b6112716040805190810160405280600d81526020017f417574686f72697a6174696f6e000000000000000000000000000000000000008152506040805190810160405280601e81526020017f426173696320637a52755a47683559574d36636d466d5954497a4e446b790000815250876128709092919063ffffffff16565b6112848561127f6001612925565b612949565b50505050505050919050565b6001600860008363ffffffff1663ffffffff16815260200190815260200160002060060160006101000a81548160ff021916908360018111156112cf57fe5b021790555050565b6000339050600660009054906101000a900473ffffffffffffffffffffffffffffffffffffffff1673ffffffffffffffffffffffffffffffffffffffff166351cff8d9826040518263ffffffff167c0100000000000000000000000000000000000000000000000000000000028152600401808273ffffffffffffffffffffffffffffffffffffffff1673ffffffffffffffffffffffffffffffffffffffff168152602001915050600060405180830381600087803b15801561139957600080fd5b505af11580156113ad573d6000803e3d6000fd5b5050505050565b60008060606000806000600860008863ffffffff1663ffffffff16815260200190815260200160002060000160049054906101000a900460ff1660028111156113f957fe5b600860008963ffffffff1663ffffffff16815260200190815260200160002060010160009054906101000a900473ffffffffffffffffffffffffffffffffffffffff16600860008a63ffffffff1663ffffffff168152602001908152602001600020600201600860008b63ffffffff1663ffffffff16815260200190815260200160002060030154600860008c63ffffffff1663ffffffff16815260200190815260200160002060060160009054906101000a900460ff1660018111156114bc57fe5b600860008d63ffffffff1663ffffffff16815260200190815260200160002060000160059054906101000a900473ffffffffffffffffffffffffffffffffffffffff16838054600181600116156101000203166002900480601f0160208091040260200160405190810160405280929190818152602001828054600181600116156101000203166002900480156115945780601f1061156957610100808354040283529160200191611594565b820191906000526020600020905b81548152906001019060200180831161157757829003601f168201915b5050505050935095509550955095509550955091939550919395565b6060806000806000606060206040519080825280601f01601f1916602001820160405280156115ee5781602001602082028038833980820191505090505b50945060009350600092505b60208310156116b8578260080260020a876001900402600102915060007f010000000000000000000000000000000000000000000000000000000000000002827effffffffffffffffffffffffffffffffffffffffffffffffffffffffffffff19161415156116ab5781858581518110151561167257fe5b9060200101907effffffffffffffffffffffffffffffffffffffffffffffffffffffffffffff1916908160001a90535083806001019450505b82806001019350506115fa565b836040519080825280601f01601f1916602001820160405280156116eb5781602001602082028038833980820191505090505b509050600092505b8383101561179f57848381518110151561170957fe5b9060200101517f010000000000000000000000000000000000000000000000000000000000000090047f010000000000000000000000000000000000000000000000000000000000000002818481518110151561176257fe5b9060200101907effffffffffffffffffffffffffffffffffffffffffffffffffffffffffffff1916908160001a90535082806001019350506116f3565b8095505050505050919050565b8160036000826000191660001916815260200190815260200160002060009054906101000a900473ffffffffffffffffffffffffffffffffffffffff1673ffffffffffffffffffffffffffffffffffffffff163373ffffffffffffffffffffffffffffffffffffffff161415156118b1576040517f08c379a00000000000000000000000000000000000000000000000000000000081526004018080602001828103825260288152602001807f736f75726365206d75737420626520746865206f7261636c65206f662074686581526020017f207265717565737400000000000000000000000000000000000000000000000081525060400191505060405180910390fd5b6118ba826115b0565b60086000600a6000876000191660001916815260200190815260200160002060009054906101000a900463ffffffff1663ffffffff1663ffffffff168152602001908152602001600020600701908051906020019061191a929190613568565b5060036000826000191660001916815260200190815260200160002060006101000a81549073ffffffffffffffffffffffffffffffffffffffff02191690557f7cc135e0cebb02c3480ae5d74d377283180a2601f8f644edf7987b009316c63a8160405180826000191660001916815260200191505060405180910390a1505050565b6060806060600860008563ffffffff1663ffffffff168152602001908152602001600020600401600860008663ffffffff1663ffffffff168152602001908152602001600020600501600860008763ffffffff1663ffffffff168152602001908152602001600020600701828054600181600116156101000203166002900480601f016020809104026020016040519081016040528092919081815260200182805460018160011615610100020316600290048015611a9d5780601f10611a7257610100808354040283529160200191611a9d565b820191906000526020600020905b815481529060010190602001808311611a8057829003601f168201915b50505050509250818054600181600116156101000203166002900480601f016020809104026020016040519081016040528092919081815260200182805460018160011615610100020316600290048015611b395780601f10611b0e57610100808354040283529160200191611b39565b820191906000526020600020905b815481529060010190602001808311611b1c57829003601f168201915b50505050509150808054600181600116156101000203166002900480601f016020809104026020016040519081016040528092919081815260200182805460018160011615610100020316600290048015611bd55780601f10611baa57610100808354040283529160200191611bd5565b820191906000526020600020905b815481529060010190602001808311611bb857829003601f168201915b505050505090509250925092509193909250565b6000611bf482611c1f565b9050919050565b611c036112d7565b565b6000600960009054906101000a900463ffffffff16905090565b6000600660009054906101000a900473ffffffffffffffffffffffffffffffffffffffff1673ffffffffffffffffffffffffffffffffffffffff1663e3a9db1a836040518263ffffffff167c0100000000000000000000000000000000000000000000000000000000028152600401808273ffffffffffffffffffffffffffffffffffffffff1673ffffffffffffffffffffffffffffffffffffffff168152602001915050602060405180830381600087803b158015611cde57600080fd5b505af1158015611cf2573d6000803e3d6000fd5b505050506040513d6020811015611d0857600080fd5b81019080805190602001909291905050509050919050565b600080611d2b6134f7565b60607f38353732623864343261626534656266613035396538663562313530306239669250611db78330606060405190810160405280602681526020017f7265717565737465644461746143616c6c6261636b28627974657333322c627981526020017f746573333229000000000000000000000000000000000000000000000000000081525061242a565b9150611eb76040805190810160405280600381526020017f75726c0000000000000000000000000000000000000000000000000000000000815250611ea7611e346040805190810160405280601d81526020017f68747470733a2f2f6170692e6769746875622e636f6d2f7265706f732f0000008152508b612c89565b6040805190810160405280600181526020017f2f000000000000000000000000000000000000000000000000000000000000008152508a6040805190810160405280600781526020017f2f70756c6c732f000000000000000000000000000000000000000000000000008152508b61245b565b846128709092919063ffffffff16565b6001604051908082528060200260200182016040528015611eec57816020015b6060815260200190600190039081611ed75790505b5090506040805190810160405280600781526020017f6d65737361676500000000000000000000000000000000000000000000000000815250816000815181101515611f3457fe5b90602001906020020181905250611f8b6040805190810160405280600481526020017f706174680000000000000000000000000000000000000000000000000000000081525082846128a39092919063ffffffff16565b611f9e82611f996001612925565b612949565b505050509392505050565b8160036000826000191660001916815260200190815260200160002060009054906101000a900473ffffffffffffffffffffffffffffffffffffffff1673ffffffffffffffffffffffffffffffffffffffff163373ffffffffffffffffffffffffffffffffffffffff161415156120ae576040517f08c379a00000000000000000000000000000000000000000000000000000000081526004018080602001828103825260288152602001807f736f75726365206d75737420626520746865206f7261636c65206f662074686581526020017f207265717565737400000000000000000000000000000000000000000000000081525060400191505060405180910390fd5b60036000826000191660001916815260200190815260200160002060006101000a81549073ffffffffffffffffffffffffffffffffffffffff02191690557f7cc135e0cebb02c3480ae5d74d377283180a2601f8f644edf7987b009316c63a8160405180826000191660001916815260200191505060405180910390a1505050565b600a6020528060005260406000206000915054906101000a900463ffffffff1681565b600061014060405190810160405280600960009054906101000a900463ffffffff1663ffffffff16815260200188600281111561218c57fe5b81526020013373ffffffffffffffffffffffffffffffffffffffff1681526020018773ffffffffffffffffffffffffffffffffffffffff168152602001868152602001858152602001848152602001838152602001600060018111156121ee57fe5b8152602001602060405190810160405280600081525081525060086000600960009054906101000a900463ffffffff1663ffffffff1663ffffffff16815260200190815260200160002060008201518160000160006101000a81548163ffffffff021916908363ffffffff16021790555060208201518160000160046101000a81548160ff0219169083600281111561228357fe5b021790555060408201518160000160056101000a81548173ffffffffffffffffffffffffffffffffffffffff021916908373ffffffffffffffffffffffffffffffffffffffff16021790555060608201518160010160006101000a81548173ffffffffffffffffffffffffffffffffffffffff021916908373ffffffffffffffffffffffffffffffffffffffff16021790555060808201518160020190805190602001906123329291906135e8565b5060a0820151816003015560c08201518160040190805190602001906123599291906135e8565b5060e08201518160050190805190602001906123769291906135e8565b506101008201518160060160006101000a81548160ff0219169083600181111561239c57fe5b02179055506101208201518160070190805190602001906123be9291906135e8565b509050506009600081819054906101000a900463ffffffff168092919060010191906101000a81548163ffffffff021916908363ffffffff16021790555050600960009054906101000a900463ffffffff1690509695505050505050565b6124268282612cd0565b5050565b6124326134f7565b61243a6134f7565b61245185858584612daa909392919063ffffffff16565b9150509392505050565b6060806060806060806060806000808e98508d97508c96508b95508a94508451865188518a518c51010101016040519080825280601f01601f1916602001820160405280156124b95781602001602082028038833980820191505090505b50935083925060009150600090505b885181101561257b5788818151811015156124df57fe5b9060200101517f010000000000000000000000000000000000000000000000000000000000000090047f010000000000000000000000000000000000000000000000000000000000000002838380600101945081518110151561253e57fe5b9060200101907effffffffffffffffffffffffffffffffffffffffffffffffffffffffffffff1916908160001a90535080806001019150506124c8565b600090505b875181101561263357878181518110151561259757fe5b9060200101517f010000000000000000000000000000000000000000000000000000000000000090047f01000000000000000000000000000000000000000000000000000000000000000283838060010194508151811015156125f657fe5b9060200101907effffffffffffffffffffffffffffffffffffffffffffffffffffffffffffff1916908160001a9053508080600101915050612580565b600090505b86518110156126eb57868181518110151561264f57fe5b9060200101517f010000000000000000000000000000000000000000000000000000000000000090047f01000000000000000000000000000000000000000000000000000000000000000283838060010194508151811015156126ae57fe5b9060200101907effffffffffffffffffffffffffffffffffffffffffffffffffffffffffffff1916908160001a9053508080600101915050612638565b600090505b85518110156127a357858181518110151561270757fe5b9060200101517f010000000000000000000000000000000000000000000000000000000000000090047f010000000000000000000000000000000000000000000000000000000000000002838380600101945081518110151561276657fe5b9060200101907effffffffffffffffffffffffffffffffffffffffffffffffffffffffffffff1916908160001a90535080806001019150506126f0565b600090505b845181101561285b5784818151811015156127bf57fe5b9060200101517f010000000000000000000000000000000000000000000000000000000000000090047f010000000000000000000000000000000000000000000000000000000000000002838380600101945081518110151561281e57fe5b9060200101907effffffffffffffffffffffffffffffffffffffffffffffffffffffffffffff1916908160001a90535080806001019150506127a8565b82995050505050505050505095945050505050565b612887828460800151612ed190919063ffffffff16565b61289e818460800151612ed190919063ffffffff16565b505050565b60006128bc838560800151612ed190919063ffffffff16565b6128c98460800151612ef6565b600090505b81518110156129125761290582828151811015156128e857fe5b906020019060200201518560800151612ed190919063ffffffff16565b80806001019150506128ce565b61291f8460800151612f04565b50505050565b6000612942670de0b6b3a764000083612f1290919063ffffffff16565b9050919050565b600060025460010283606001906000191690816000191681525050600160026000828254019250508190555061297e83612f4a565b600160009054906101000a900473ffffffffffffffffffffffffffffffffffffffff166003600085606001516000191660001916815260200190815260200160002060006101000a81548173ffffffffffffffffffffffffffffffffffffffff021916908373ffffffffffffffffffffffffffffffffffffffff1602179055507fb5e6e01e79f91267dc17b4e6314d5d4d03593d2ceee0fbb452b750bd70ea5af9836060015160405180826000191660001916815260200191505060405180910390a16000809054906101000a900473ffffffffffffffffffffffffffffffffffffffff1673ffffffffffffffffffffffffffffffffffffffff16634000aea0600160009054906101000a900473ffffffffffffffffffffffffffffffffffffffff1684612ab6600188612f5a90919063ffffffff16565b6040518463ffffffff167c0100000000000000000000000000000000000000000000000000000000028152600401808473ffffffffffffffffffffffffffffffffffffffff1673ffffffffffffffffffffffffffffffffffffffff16815260200183815260200180602001828103825283818151815260200191508051906020019080838360005b83811015612b59578082015181840152602081019050612b3e565b50505050905090810190601f168015612b865780820380516001836020036101000a031916815260200191505b50945050505050602060405180830381600087803b158015612ba757600080fd5b505af1158015612bbb573d6000803e3d6000fd5b505050506040513d6020811015612bd157600080fd5b81019080805190602001909291905050501515612c7c576040517f08c379a00000000000000000000000000000000000000000000000000000000081526004018080602001828103825260238152602001807f756e61626c6520746f207472616e73666572416e6443616c6c20746f206f726181526020017f636c65000000000000000000000000000000000000000000000000000000000081525060400191505060405180910390fd5b8260600151905092915050565b6060612cc8838360206040519081016040528060008152506020604051908101604052806000815250602060405190810160405280600081525061245b565b905092915050565b600660009054906101000a900473ffffffffffffffffffffffffffffffffffffffff1673ffffffffffffffffffffffffffffffffffffffff1663f340fa0182846040518363ffffffff167c0100000000000000000000000000000000000000000000000000000000028152600401808273ffffffffffffffffffffffffffffffffffffffff1673ffffffffffffffffffffffffffffffffffffffff1681526020019150506000604051808303818588803b158015612d8d57600080fd5b505af1158015612da1573d6000803e3d6000fd5b50505050505050565b612db26134f7565b612dc18560800151608061318a565b838560000190600019169081600019168152505082856020019073ffffffffffffffffffffffffffffffffffffffff16908173ffffffffffffffffffffffffffffffffffffffff1681525050816040518082805190602001908083835b602083101515612e435780518252602082019150602081019050602083039250612e1e565b6001836020036101000a038019825116818451168082178552505050505050905001915050604051809103902085604001907bffffffffffffffffffffffffffffffffffffffffffffffffffffffff191690817bffffffffffffffffffffffffffffffffffffffffffffffffffffffff191681525050612ec685608001516131da565b849050949350505050565b612ede82600383516131e8565b612ef1818361334190919063ffffffff16565b505050565b612f018160046133ed565b50565b612f0f8160076133ed565b50565b600080831415612f255760009050612f44565b8183029050818382811515612f3657fe5b04141515612f4057fe5b8090505b92915050565b612f578160800151612f04565b50565b606060405180807f726571756573744461746128616464726573732c75696e743235362c75696e7481526020017f3235362c627974657333322c616464726573732c6279746573342c627974657381526020017f33322c6279746573290000000000000000000000000000000000000000000000815250604901905060405180910390206000808486600001518760200151886040015189606001518a6080015160000151604051602401808960ff1681526020018860ff16815260200187815260200186600019166000191681526020018573ffffffffffffffffffffffffffffffffffffffff1673ffffffffffffffffffffffffffffffffffffffff168152602001847bffffffffffffffffffffffffffffffffffffffffffffffffffffffff19167bffffffffffffffffffffffffffffffffffffffffffffffffffffffff19168152602001836000191660001916815260200180602001828103825283818151815260200191508051906020019080838360005b838110156130ec5780820151818401526020810190506130d1565b50505050905090810190601f1680156131195780820380516001836020036101000a031916815260200191505b509950505050505050505050604051602081830303815290604052907bffffffffffffffffffffffffffffffffffffffffffffffffffffffff19166020820180517bffffffffffffffffffffffffffffffffffffffffffffffffffffffff8381831617835250505050905092915050565b6000819050600060208281151561319d57fe5b061415156131ba576020818115156131b157fe5b06602003810190505b808360200181815250506040518084526000815281810160405250505050565b6131e58160056133ed565b50565b601781111515613219576132148160058460ff169060020a0260ff16178461341190919063ffffffff16565b61333c565b60ff8111151561325f57613243601860058460ff169060020a02178461341190919063ffffffff16565b613259816001856134519092919063ffffffff16565b5061333b565b61ffff811115156132a65761328a601960058460ff169060020a02178461341190919063ffffffff16565b6132a0816002856134519092919063ffffffff16565b5061333a565b63ffffffff811115156132ef576132d3601a60058460ff169060020a02178461341190919063ffffffff16565b6132e9816004856134519092919063ffffffff16565b50613339565b67ffffffffffffffff8111151561333857613320601b60058460ff169060020a02178461341190919063ffffffff16565b613336816008856134519092919063ffffffff16565b505b5b5b5b5b505050565b613349613668565b6000806000808660200151876000015151875101111561337f5761337e8760026133788a602001518a516134b8565b026134d4565b5b8551915086518051602081830101955087518101825260208801945050505b6020821015156133c3578251845260208401935060208301925060208203915061339e565b6001826020036101000a039050801983511681855116818117865250508694505050505092915050565b61340d601f60058360ff169060020a02178361341190919063ffffffff16565b5050565b81602001516001836000015151011115613437576134368260028460200151026134d4565b5b815180516020818301018381536001820183525050505050565b613459613668565b6000846020015185600001515184011115613489576134888560026134828860200151876134b8565b026134d4565b5b6001836101000a0390508451805184818301018684198251161781528582018352505050849150509392505050565b6000818311156134ca578290506134ce565b8190505b92915050565b6060826000015190506134e7838361318a565b6134f18382613341565b50505050565b60c06040519081016040528060008019168152602001600073ffffffffffffffffffffffffffffffffffffffff16815260200160007bffffffffffffffffffffffffffffffffffffffffffffffffffffffff1916815260200160008019168152602001613562613682565b81525090565b828054600181600116156101000203166002900490600052602060002090601f016020900481019282601f106135a957805160ff19168380011785556135d7565b828001600101855582156135d7579182015b828111156135d65782518255916020019190600101906135bb565b5b5090506135e4919061369c565b5090565b828054600181600116156101000203166002900490600052602060002090601f016020900481019282601f1061362957805160ff1916838001178555613657565b82800160010185558215613657579182015b8281111561365657825182559160200191906001019061363b565b5b509050613664919061369c565b5090565b604080519081016040528060608152602001600081525090565b604080519081016040528060608152602001600081525090565b6136be91905b808211156136ba5760008160009055506001016136a2565b5090565b905600a165627a7a72305820ce2b815a94ebb32740515404ae55d709e241ed84eb0bb6df57bbc2cfc174490c00296080604052336000806101000a81548173ffffffffffffffffffffffffffffffffffffffff021916908373ffffffffffffffffffffffffffffffffffffffff1602179055506107fe806100536000396000f300608060405260043610610078576000357c0100000000000000000000000000000000000000000000000000000000900463ffffffff16806351cff8d91461007d578063715018a6146100c05780638da5cb5b146100d7578063e3a9db1a1461012e578063f2fde38b14610185578063f340fa01146101c8575b600080fd5b34801561008957600080fd5b506100be600480360381019080803573ffffffffffffffffffffffffffffffffffffffff1690602001909291905050506101fe565b005b3480156100cc57600080fd5b506100d561039e565b005b3480156100e357600080fd5b506100ec6104a0565b604051808273ffffffffffffffffffffffffffffffffffffffff1673ffffffffffffffffffffffffffffffffffffffff16815260200191505060405180910390f35b34801561013a57600080fd5b5061016f600480360381019080803573ffffffffffffffffffffffffffffffffffffffff1690602001909291905050506104c5565b6040518082815260200191505060405180910390f35b34801561019157600080fd5b506101c6600480360381019080803573ffffffffffffffffffffffffffffffffffffffff16906020019092919050505061050e565b005b6101fc600480360381019080803573ffffffffffffffffffffffffffffffffffffffff169060200190929190505050610575565b005b60008060009054906101000a900473ffffffffffffffffffffffffffffffffffffffff1673ffffffffffffffffffffffffffffffffffffffff163373ffffffffffffffffffffffffffffffffffffffff1614151561025b57600080fd5b600160008373ffffffffffffffffffffffffffffffffffffffff1673ffffffffffffffffffffffffffffffffffffffff168152602001908152602001600020549050803073ffffffffffffffffffffffffffffffffffffffff1631101515156102c057fe5b6000600160008473ffffffffffffffffffffffffffffffffffffffff1673ffffffffffffffffffffffffffffffffffffffff168152602001908152602001600020819055508173ffffffffffffffffffffffffffffffffffffffff166108fc829081150290604051600060405180830381858888f1935050505015801561034b573d6000803e3d6000fd5b508173ffffffffffffffffffffffffffffffffffffffff167f7084f5476618d8e60b11ef0d7d3f06914655adb8793e28ff7f018d4c76d505d5826040518082815260200191505060405180910390a25050565b6000809054906101000a900473ffffffffffffffffffffffffffffffffffffffff1673ffffffffffffffffffffffffffffffffffffffff163373ffffffffffffffffffffffffffffffffffffffff161415156103f957600080fd5b6000809054906101000a900473ffffffffffffffffffffffffffffffffffffffff1673ffffffffffffffffffffffffffffffffffffffff167ff8df31144d9c2f0f6b59d69b8b98abd5459d07f2742c4df920b25aae33c6482060405160405180910390a260008060006101000a81548173ffffffffffffffffffffffffffffffffffffffff021916908373ffffffffffffffffffffffffffffffffffffffff160217905550565b6000809054906101000a900473ffffffffffffffffffffffffffffffffffffffff1681565b6000600160008373ffffffffffffffffffffffffffffffffffffffff1673ffffffffffffffffffffffffffffffffffffffff168152602001908152602001600020549050919050565b6000809054906101000a900473ffffffffffffffffffffffffffffffffffffffff1673ffffffffffffffffffffffffffffffffffffffff163373ffffffffffffffffffffffffffffffffffffffff1614151561056957600080fd5b610572816106bc565b50565b60008060009054906101000a900473ffffffffffffffffffffffffffffffffffffffff1673ffffffffffffffffffffffffffffffffffffffff163373ffffffffffffffffffffffffffffffffffffffff161415156105d257600080fd5b34905061062781600160008573ffffffffffffffffffffffffffffffffffffffff1673ffffffffffffffffffffffffffffffffffffffff168152602001908152602001600020546107b690919063ffffffff16565b600160008473ffffffffffffffffffffffffffffffffffffffff1673ffffffffffffffffffffffffffffffffffffffff168152602001908152602001600020819055508173ffffffffffffffffffffffffffffffffffffffff167f2da466a7b24304f47e87fa2e1e5a81b9831ce54fec19055ce277ca2f39ba42c4826040518082815260200191505060405180910390a25050565b600073ffffffffffffffffffffffffffffffffffffffff168173ffffffffffffffffffffffffffffffffffffffff16141515156106f857600080fd5b8073ffffffffffffffffffffffffffffffffffffffff166000809054906101000a900473ffffffffffffffffffffffffffffffffffffffff1673ffffffffffffffffffffffffffffffffffffffff167f8be0079c531659141344cd1fd0a4f28419497f9722a3daafe3b4186f6b6457e060405160405180910390a3806000806101000a81548173ffffffffffffffffffffffffffffffffffffffff021916908373ffffffffffffffffffffffffffffffffffffffff16021790555050565b600081830190508281101515156107c957fe5b809050929150505600a165627a7a72305820973a172f78b51cc7da7d1c003dd975a843227d8d48dd74e4ec8dd9f8812c337c0029",
  "source": "pragma solidity ^0.4.24;\n\nimport \"../node_modules/openzeppelin-solidity/contracts/payment/PullPayment.sol\";\nimport \"chainlink/solidity/contracts/Chainlinked.sol\";\n\ncontract JiraContract is Chainlinked, PullPayment{ \n\n  address private owner;\n\n  constructor() public {\n    owner = msg.sender;\n    setLinkToken(0x01BE23585060835E02B77ef475b0Cc51aA1e0709);\n    setOracle(0xf18455e70984e8fda0ADbe2c8dD21509DBeFA218);\n  }\n\n  enum IssueStage {\n    Open,\n    Closed\n  }\n\n  enum IssueType {\n    Feature,\n    Bug,\n    Support\n  }\n\n  struct Issue {\n    uint32 issueId;\n    IssueType issueType;\n    address assigner;\n    address assignee;\n    string desc;\n    uint256 rewardAmt;\n    string repositoryOwner;\n    string repositoryName;\n    IssueStage issueStage;\n    string repoIssueId;\n  }\n\n  mapping (uint32 => Issue) issues;\n  uint32 numIssues;\n\n  mapping(bytes32 => uint32) public receipts;\n\n  function createIssue(IssueType issueType, address assignee, string desc, uint256 rewardAmt, string repositoryOwner, string repositoryName) public returns(uint32) {\n    issues[numIssues] = Issue(numIssues, issueType, msg.sender, assignee, desc, rewardAmt, repositoryOwner, repositoryName, IssueStage.Open, \"\");\n    numIssues++;\n    return numIssues;\n  }\n\n  function returnIssuesCount() public view returns (uint32) {\n    return numIssues;\n  }\n\n  function getIssue(uint32 issueId) public view returns(uint, address, string, uint256, uint, address) {\n    return (uint(issues[issueId].issueType), issues[issueId].assignee, issues[issueId].desc, issues[issueId].rewardAmt, uint(issues[issueId].issueStage), issues[issueId].assigner);\n  }\n\n  function getIssueDevDetails(uint32 issueId) public view returns(string, string, string) {\n    return (issues[issueId].repositoryOwner, issues[issueId].repositoryName, issues[issueId].repoIssueId);\n  }\n\n  function closeIssue(uint32 issueId) public {\n    issues[issueId].issueStage = IssueStage.Closed;\n  }\n\n  function strConcat(string _a, string _b, string _c, string _d, string _e) internal returns (string){\n    bytes memory _ba = bytes(_a);\n    bytes memory _bb = bytes(_b);\n    bytes memory _bc = bytes(_c);\n    bytes memory _bd = bytes(_d);\n    bytes memory _be = bytes(_e);\n    string memory abcde = new string(_ba.length + _bb.length + _bc.length + _bd.length + _be.length);\n    bytes memory babcde = bytes(abcde);\n    uint k = 0;\n    for (uint i = 0; i < _ba.length; i++) babcde[k++] = _ba[i];\n    for (i = 0; i < _bb.length; i++) babcde[k++] = _bb[i];\n    for (i = 0; i < _bc.length; i++) babcde[k++] = _bc[i];\n    for (i = 0; i < _bd.length; i++) babcde[k++] = _bd[i];\n    for (i = 0; i < _be.length; i++) babcde[k++] = _be[i];\n    return string(babcde);\n  }\n\n  function strConcat(string _a, string _b, string _c, string _d) internal returns (string) {\n    return strConcat(_a, _b, _c, _d, \"\");\n  }\n\n  function strConcat(string _a, string _b, string _c) internal returns (string) {\n    return strConcat(_a, _b, _c, \"\", \"\");\n  }\n\n  function strConcat(string _a, string _b) internal returns (string) {\n    return strConcat(_a, _b, \"\", \"\", \"\");\n  }\n\n  function bytes32ToString(bytes32 x) public view returns (string) {\n    bytes memory bytesString = new bytes(32);\n    uint charCount = 0;\n    for (uint j = 0; j < 32; j++) {\n      byte char = byte(bytes32(uint(x) * 2 ** (8 * j)));\n      if (char != 0) {\n        bytesString[charCount] = char;\n        charCount++;\n      }\n    }\n    bytes memory bytesStringTrimmed = new bytes(charCount);\n    for (j = 0; j < charCount; j++) {\n      bytesStringTrimmed[j] = bytesString[j];\n    }\n    return string(bytesStringTrimmed);\n  }\n\n  function createRepoIssue(uint32 issueId) public payable returns (bytes32) {\n    bytes32 jobId = bytes32(\"cde8428b99b343d294d395853af86441\");\n    ChainlinkLib.Run memory run = newRun(jobId, this, \"createRepoIssueCallback(bytes32,bytes32)\");\n    run.add(\"url\", strConcat(\"https://api.github.com/repos/\",issues[issueId].repositoryOwner,\"/\",issues[issueId].repositoryName,\"/issues\"));  \n    string[] memory path = new string[](1);\n    path[0] = \"number\";\n    run.addStringArray(\"path\", path);\n    string memory issueType = uint(issues[issueId].issueType) == 0 ? \"enhancement\" : (uint(issues[issueId].issueType) == 1) ? \"bug\" : \"question\"; \n    run.add(\"title\", issueType);\n    run.add(\"body\", issues[issueId].desc);\n    string[] memory assignees = new string[](1);\n    assignees[0] = issues[issueId].repositoryOwner;\n    run.addStringArray(\"assignees\", assignees);\n    string[] memory labels = new string[](1);\n    labels[0] = issueType;\n    run.addStringArray(\"labels\", labels);\n    run.add(\"Content-Type\",\"application/json\");\n    run.add(\"Authorization\",\"Basic czRuZGh5YWM6cmFmYTIzNDky\");\n    chainlinkRequest(run, LINK(1));\n  }\n\n  function createRepoIssueCallback(bytes32 _requestId, bytes32 repoIssueId) public checkChainlinkFulfillment(_requestId) {\n    issues[receipts[_requestId]].repoIssueId = bytes32ToString(repoIssueId);\n  }\n\n\n  function getIssueStage(string repositoryOwner, string repositoryName, string repoIssueId) public payable returns(uint) {\n    bytes32 jobId = bytes32(\"8572b8d42abe4ebfa059e8f5b1500b9f\");\n    ChainlinkLib.Run memory run = newRun(jobId, this, \"requestedDataCallback(bytes32,bytes32)\");\n    run.add(\"url\", strConcat(strConcat(\"https://api.github.com/repos/\",repositoryOwner),\"/\",repositoryName,\"/pulls/\",repoIssueId));\n    string[] memory path = new string[](1);\n    path[0] = \"message\";\n    run.addStringArray(\"path\", path);\n    chainlinkRequest(run, LINK(1));\n  }\n\n  function requestedDataCallback(bytes32 _requestId, bytes32 issueStage) public checkChainlinkFulfillment(_requestId) {\n    \n  }\n\n  function creditTransfer(address dest, uint256 amount) public payable {\n    asyncTransfer(dest, amount);\n  }\n\n  function checkReward(address assignee) public view returns(uint256) {\n    return payments(assignee);\n  }\n\n  function withdrawReward() public {\n    withdrawPayments();\n  }       \n}",
  "sourcePath": "/Users/sandhya/Documents/repos/ethcentivize/jira-dapp/contracts/JiraContract.sol",
  "compiler": {
    "name": "solc",
    "version": "0.4.24+commit.e67f0147.Emscripten.clang"
  },
  "schemaVersion": "2.0.1",
  "updatedAt": "2018-10-07T14:59:19.546Z"
}