{
  "contractName": "Oracle",
  "abi": [
    {
      "constant": true,
      "inputs": [],
      "name": "owner",
      "outputs": [
        {
          "name": "",
          "type": "address"
        }
      ],
      "payable": false,
      "stateMutability": "view",
      "type": "function"
    },
    {
      "constant": false,
      "inputs": [
        {
          "name": "newOwner",
          "type": "address"
        }
      ],
      "name": "transferOwnership",
      "outputs": [],
      "payable": false,
      "stateMutability": "nonpayable",
      "type": "function"
    },
    {
      "inputs": [
        {
          "name": "_link",
          "type": "address"
        }
      ],
      "payable": false,
      "stateMutability": "nonpayable",
      "type": "constructor"
    },
    {
      "anonymous": false,
      "inputs": [
        {
          "indexed": true,
          "name": "specId",
          "type": "bytes32"
        },
        {
          "indexed": true,
          "name": "requester",
          "type": "address"
        },
        {
          "indexed": true,
          "name": "amount",
          "type": "uint256"
        },
        {
          "indexed": false,
          "name": "internalId",
          "type": "uint256"
        },
        {
          "indexed": false,
          "name": "version",
          "type": "uint256"
        },
        {
          "indexed": false,
          "name": "data",
          "type": "bytes"
        }
      ],
      "name": "RunRequest",
      "type": "event"
    },
    {
      "anonymous": false,
      "inputs": [
        {
          "indexed": false,
          "name": "internalId",
          "type": "uint256"
        }
      ],
      "name": "CancelRequest",
      "type": "event"
    },
    {
      "anonymous": false,
      "inputs": [
        {
          "indexed": true,
          "name": "previousOwner",
          "type": "address"
        },
        {
          "indexed": true,
          "name": "newOwner",
          "type": "address"
        }
      ],
      "name": "OwnershipTransferred",
      "type": "event"
    },
    {
      "constant": false,
      "inputs": [
        {
          "name": "_sender",
          "type": "address"
        },
        {
          "name": "_amount",
          "type": "uint256"
        },
        {
          "name": "_data",
          "type": "bytes"
        }
      ],
      "name": "onTokenTransfer",
      "outputs": [],
      "payable": false,
      "stateMutability": "nonpayable",
      "type": "function"
    },
    {
      "constant": false,
      "inputs": [
        {
          "name": "_sender",
          "type": "address"
        },
        {
          "name": "_amount",
          "type": "uint256"
        },
        {
          "name": "_version",
          "type": "uint256"
        },
        {
          "name": "_specId",
          "type": "bytes32"
        },
        {
          "name": "_callbackAddress",
          "type": "address"
        },
        {
          "name": "_callbackFunctionId",
          "type": "bytes4"
        },
        {
          "name": "_externalId",
          "type": "bytes32"
        },
        {
          "name": "_data",
          "type": "bytes"
        }
      ],
      "name": "requestData",
      "outputs": [],
      "payable": false,
      "stateMutability": "nonpayable",
      "type": "function"
    },
    {
      "constant": false,
      "inputs": [
        {
          "name": "_internalId",
          "type": "uint256"
        },
        {
          "name": "_data",
          "type": "bytes32"
        }
      ],
      "name": "fulfillData",
      "outputs": [],
      "payable": false,
      "stateMutability": "nonpayable",
      "type": "function"
    },
    {
      "constant": false,
      "inputs": [
        {
          "name": "_recipient",
          "type": "address"
        },
        {
          "name": "_amount",
          "type": "uint256"
        }
      ],
      "name": "withdraw",
      "outputs": [],
      "payable": false,
      "stateMutability": "nonpayable",
      "type": "function"
    },
    {
      "constant": false,
      "inputs": [
        {
          "name": "_externalId",
          "type": "bytes32"
        }
      ],
      "name": "cancel",
      "outputs": [],
      "payable": false,
      "stateMutability": "nonpayable",
      "type": "function"
    }
  ],
  "bytecode": "0x6080604052600160025534801561001557600080fd5b5060405160208061196483398101806040528101908080519060200190929190505050336000806101000a81548173ffffffffffffffffffffffffffffffffffffffff021916908373ffffffffffffffffffffffffffffffffffffffff16021790555080600160006101000a81548173ffffffffffffffffffffffffffffffffffffffff021916908373ffffffffffffffffffffffffffffffffffffffff1602179055505061189b806100c96000396000f300608060405260043610610083576000357c0100000000000000000000000000000000000000000000000000000000900463ffffffff1680632798cecd1461008857806376005c261461018a5780638da5cb5b146101c5578063a4c0ed361461021c578063c4d252f5146102af578063f2fde38b146102e0578063f3fef3a314610323575b600080fd5b34801561009457600080fd5b50610188600480360381019080803573ffffffffffffffffffffffffffffffffffffffff16906020019092919080359060200190929190803590602001909291908035600019169060200190929190803573ffffffffffffffffffffffffffffffffffffffff16906020019092919080357bffffffffffffffffffffffffffffffffffffffffffffffffffffffff191690602001909291908035600019169060200190929190803590602001908201803590602001908080601f0160208091040260200160405190810160405280939291908181526020018383808284378201915050505050509192919290505050610370565b005b34801561019657600080fd5b506101c3600480360381019080803590602001909291908035600019169060200190929190505050610744565b005b3480156101d157600080fd5b506101da610b05565b604051808273ffffffffffffffffffffffffffffffffffffffff1673ffffffffffffffffffffffffffffffffffffffff16815260200191505060405180910390f35b34801561022857600080fd5b506102ad600480360381019080803573ffffffffffffffffffffffffffffffffffffffff16906020019092919080359060200190929190803590602001908201803590602001908080601f0160208091040260200160405190810160405280939291908181526020018383808284378201915050505050509192919290505050610b2a565b005b3480156102bb57600080fd5b506102de6004803603810190808035600019169060200190929190505050610e51565b005b3480156102ec57600080fd5b50610321600480360381019080803573ffffffffffffffffffffffffffffffffffffffff169060200190929190505050611420565b005b34801561032f57600080fd5b5061036e600480360381019080803573ffffffffffffffffffffffffffffffffffffffff16906020019092919080359060200190929190505050611575565b005b6000600160009054906101000a900473ffffffffffffffffffffffffffffffffffffffff1673ffffffffffffffffffffffffffffffffffffffff163373ffffffffffffffffffffffffffffffffffffffff16141515610437576040517f08c379a00000000000000000000000000000000000000000000000000000000081526004018080602001828103825260138152602001807f4d75737420757365204c494e4b20746f6b656e0000000000000000000000000081525060200191505060405180910390fd5b8883604051602001808373ffffffffffffffffffffffffffffffffffffffff1673ffffffffffffffffffffffffffffffffffffffff166c010000000000000000000000000281526014018260001916600019168152602001925050506040516020818303038152906040526040518082805190602001908083835b6020831015156104d757805182526020820191506020810190506020830392506104b2565b6001836020036101000a038019825116818451168082178552505050505050905001915050604051809103902060019004905060a060405190810160405280846000191681526020018981526020018673ffffffffffffffffffffffffffffffffffffffff168152602001857bffffffffffffffffffffffffffffffffffffffffffffffffffffffff1916815260200161057c61012c426117a590919063ffffffff16565b67ffffffffffffffff1681525060036000838152602001908152602001600020600082015181600001906000191690556020820151816001015560408201518160020160006101000a81548173ffffffffffffffffffffffffffffffffffffffff021916908373ffffffffffffffffffffffffffffffffffffffff16021790555060608201518160020160146101000a81548163ffffffff02191690837c01000000000000000000000000000000000000000000000000000000009004021790555060808201518160020160186101000a81548167ffffffffffffffff021916908367ffffffffffffffff160217905550905050878973ffffffffffffffffffffffffffffffffffffffff1687600019167f6d6db1f8fe19d95b1d0fa6a4bce7bb24fbf84597b35a33ff95521fac453c1529848b876040518084815260200183815260200180602001828103825283818151815260200191508051906020019080838360005b838110156106fd5780820151818401526020810190506106e2565b50505050905090810190601f16801561072a5780820380516001836020036101000a031916815260200191505b5094505050505060405180910390a4505050505050505050565b61074c6117da565b6000809054906101000a900473ffffffffffffffffffffffffffffffffffffffff1673ffffffffffffffffffffffffffffffffffffffff163373ffffffffffffffffffffffffffffffffffffffff161415156107a757600080fd5b82600073ffffffffffffffffffffffffffffffffffffffff166003600083815260200190815260200160002060020160009054906101000a900473ffffffffffffffffffffffffffffffffffffffff1673ffffffffffffffffffffffffffffffffffffffff1614151515610883576040517f08c379a000000000000000000000000000000000000000000000000000000000815260040180806020018281038252601c8152602001807f4d757374206861766520612076616c696420696e7465726e616c49640000000081525060200191505060405180910390fd5b6003600085815260200190815260200160002060a06040519081016040529081600082015460001916600019168152602001600182015481526020016002820160009054906101000a900473ffffffffffffffffffffffffffffffffffffffff1673ffffffffffffffffffffffffffffffffffffffff1673ffffffffffffffffffffffffffffffffffffffff1681526020016002820160149054906101000a90047c0100000000000000000000000000000000000000000000000000000000027bffffffffffffffffffffffffffffffffffffffffffffffffffffffff19167bffffffffffffffffffffffffffffffffffffffffffffffffffffffff191681526020016002820160189054906101000a900467ffffffffffffffff1667ffffffffffffffff1667ffffffffffffffff168152505091506109d282602001516002546117a590919063ffffffff16565b6002819055506003600085815260200190815260200160002060008082016000905560018201600090556002820160006101000a81549073ffffffffffffffffffffffffffffffffffffffff02191690556002820160146101000a81549063ffffffff02191690556002820160186101000a81549067ffffffffffffffff02191690555050816040015173ffffffffffffffffffffffffffffffffffffffff1682606001517c010000000000000000000000000000000000000000000000000000000090048360000151856040518363ffffffff167c01000000000000000000000000000000000000000000000000000000000281526004018083600019166000191681526020018260001916600019168152602001925050506000604051808303816000875af1925050505050505050565b6000809054906101000a900473ffffffffffffffffffffffffffffffffffffffff1681565b600160009054906101000a900473ffffffffffffffffffffffffffffffffffffffff1673ffffffffffffffffffffffffffffffffffffffff163373ffffffffffffffffffffffffffffffffffffffff16141515610bef576040517f08c379a00000000000000000000000000000000000000000000000000000000081526004018080602001828103825260138152602001807f4d75737420757365204c494e4b20746f6b656e0000000000000000000000000081525060200191505060405180910390fd5b610bf761184c565b60046084823760405180807f726571756573744461746128616464726573732c75696e743235362c75696e7481526020017f3235362c627974657333322c616464726573732c6279746573342c627974657381526020017f33322c6279746573290000000000000000000000000000000000000000000000815250604901905060405180910390207bffffffffffffffffffffffffffffffffffffffffffffffffffffffff1916816000600181101515610cad57fe5b60200201517bffffffffffffffffffffffffffffffffffffffffffffffffffffffff1916141515610d46576040517f08c379a000000000000000000000000000000000000000000000000000000000815260040180806020018281038252601e8152602001807f4d757374207573652077686974656c69737465642066756e6374696f6e73000081525060200191505060405180910390fd5b8360248301528260448301523073ffffffffffffffffffffffffffffffffffffffff168260405180828051906020019080838360005b83811015610d97578082015181840152602081019050610d7c565b50505050905090810190601f168015610dc45780820380516001836020036101000a031916815260200191505b50915050600060405180830381855af49150501515610e4b576040517f08c379a00000000000000000000000000000000000000000000000000000000081526004018080602001828103825260188152602001807f556e61626c6520746f206372656174652072657175657374000000000000000081525060200191505060405180910390fd5b50505050565b6000610e5b6117da565b3383604051602001808373ffffffffffffffffffffffffffffffffffffffff1673ffffffffffffffffffffffffffffffffffffffff166c010000000000000000000000000281526014018260001916600019168152602001925050506040516020818303038152906040526040518082805190602001908083835b602083101515610efb5780518252602082019150602081019050602083039250610ed6565b6001836020036101000a03801982511681845116808217855250505050505090500191505060405180910390206001900491506003600083815260200190815260200160002060020160009054906101000a900473ffffffffffffffffffffffffffffffffffffffff1673ffffffffffffffffffffffffffffffffffffffff163373ffffffffffffffffffffffffffffffffffffffff16141515611007576040517f08c379a000000000000000000000000000000000000000000000000000000000815260040180806020018281038252601d8152602001807f4d7573742062652063616c6c65642066726f6d2072657175657374657200000081525060200191505060405180910390fd5b426003600084815260200190815260200160002060020160189054906101000a900467ffffffffffffffff1667ffffffffffffffff16111515156110b3576040517f08c379a00000000000000000000000000000000000000000000000000000000081526004018080602001828103825260168152602001807f52657175657374206973206e6f7420657870697265640000000000000000000081525060200191505060405180910390fd5b6003600083815260200190815260200160002060a06040519081016040529081600082015460001916600019168152602001600182015481526020016002820160009054906101000a900473ffffffffffffffffffffffffffffffffffffffff1673ffffffffffffffffffffffffffffffffffffffff1673ffffffffffffffffffffffffffffffffffffffff1681526020016002820160149054906101000a90047c0100000000000000000000000000000000000000000000000000000000027bffffffffffffffffffffffffffffffffffffffffffffffffffffffff19167bffffffffffffffffffffffffffffffffffffffffffffffffffffffff191681526020016002820160189054906101000a900467ffffffffffffffff1667ffffffffffffffff1667ffffffffffffffff16815250509050600160009054906101000a900473ffffffffffffffffffffffffffffffffffffffff1673ffffffffffffffffffffffffffffffffffffffff1663a9059cbb826040015183602001516040518363ffffffff167c0100000000000000000000000000000000000000000000000000000000028152600401808373ffffffffffffffffffffffffffffffffffffffff1673ffffffffffffffffffffffffffffffffffffffff16815260200182815260200192505050602060405180830381600087803b1580156112b657600080fd5b505af11580156112ca573d6000803e3d6000fd5b505050506040513d60208110156112e057600080fd5b81019080805190602001909291905050501515611365576040517f08c379a00000000000000000000000000000000000000000000000000000000081526004018080602001828103825260128152602001807f556e61626c6520746f207472616e73666572000000000000000000000000000081525060200191505060405180910390fd5b6003600083815260200190815260200160002060008082016000905560018201600090556002820160006101000a81549073ffffffffffffffffffffffffffffffffffffffff02191690556002820160146101000a81549063ffffffff02191690556002820160186101000a81549067ffffffffffffffff021916905550507f964b7303b4bad5535d8a5957f8004a3b1660c69e28bcf4acaf8722a98093ab26826040518082815260200191505060405180910390a1505050565b6000809054906101000a900473ffffffffffffffffffffffffffffffffffffffff1673ffffffffffffffffffffffffffffffffffffffff163373ffffffffffffffffffffffffffffffffffffffff1614151561147b57600080fd5b600073ffffffffffffffffffffffffffffffffffffffff168173ffffffffffffffffffffffffffffffffffffffff16141515156114b757600080fd5b8073ffffffffffffffffffffffffffffffffffffffff166000809054906101000a900473ffffffffffffffffffffffffffffffffffffffff1673ffffffffffffffffffffffffffffffffffffffff167f8be0079c531659141344cd1fd0a4f28419497f9722a3daafe3b4186f6b6457e060405160405180910390a3806000806101000a81548173ffffffffffffffffffffffffffffffffffffffff021916908373ffffffffffffffffffffffffffffffffffffffff16021790555050565b6000809054906101000a900473ffffffffffffffffffffffffffffffffffffffff1673ffffffffffffffffffffffffffffffffffffffff163373ffffffffffffffffffffffffffffffffffffffff161415156115d057600080fd5b806115e56001826117a590919063ffffffff16565b60025410151515611684576040517f08c379a00000000000000000000000000000000000000000000000000000000081526004018080602001828103825260358152602001807f416d6f756e74207265717565737465642069732067726561746572207468616e81526020017f20776974686472617761626c652062616c616e6365000000000000000000000081525060400191505060405180910390fd5b611699826002546117c190919063ffffffff16565b600281905550600160009054906101000a900473ffffffffffffffffffffffffffffffffffffffff1673ffffffffffffffffffffffffffffffffffffffff1663a9059cbb84846040518363ffffffff167c0100000000000000000000000000000000000000000000000000000000028152600401808373ffffffffffffffffffffffffffffffffffffffff1673ffffffffffffffffffffffffffffffffffffffff16815260200182815260200192505050602060405180830381600087803b15801561176457600080fd5b505af1158015611778573d6000803e3d6000fd5b505050506040513d602081101561178e57600080fd5b810190808051906020019092919050505050505050565b600081830190508281101515156117b857fe5b80905092915050565b60008282111515156117cf57fe5b818303905092915050565b60a0604051908101604052806000801916815260200160008152602001600073ffffffffffffffffffffffffffffffffffffffff16815260200160007bffffffffffffffffffffffffffffffffffffffffffffffffffffffff19168152602001600067ffffffffffffffff1681525090565b6020604051908101604052806001906020820280388339808201915050905050905600a165627a7a72305820e25692fe873fcd33ddf22a54e5d68b42f701b6305c605e342e2f91370b3bd4cb0029",
  "source": "pragma solidity ^0.4.24;\n\nimport \"openzeppelin-solidity/contracts/ownership/Ownable.sol\";\nimport \"openzeppelin-solidity/contracts/math/SafeMath.sol\";\nimport \"link_token/contracts/LinkToken.sol\";\n\ncontract Oracle is Ownable {\n  using SafeMath for uint256;\n\n  LinkToken internal LINK;\n\n  struct Callback {\n    bytes32 externalId;\n    uint256 amount;\n    address addr;\n    bytes4 functionId;\n    uint64 cancelExpiration;\n  }\n\n  // We initialize fields to 1 instead of 0 so that the first invocation\n  // does not cost more gas.\n  uint256 constant private oneForConsistentGasCost = 1;\n  uint256 private withdrawableWei = oneForConsistentGasCost;\n\n  mapping(uint256 => Callback) private callbacks;\n\n  event RunRequest(\n    bytes32 indexed specId,\n    address indexed requester,\n    uint256 indexed amount,\n    uint256 internalId,\n    uint256 version,\n    bytes data\n  );\n\n  event CancelRequest(\n    uint256 internalId\n  );\n\n  constructor(address _link) Ownable() public {\n    LINK = LinkToken(_link);\n  }\n\n  function onTokenTransfer(\n    address _sender,\n    uint256 _amount,\n    bytes _data\n  )\n    public\n    onlyLINK\n    permittedFunctionsForLINK\n  {\n    assembly {\n      // solium-disable-next-line security/no-low-level-calls\n      mstore(add(_data, 36), _sender) // ensure correct sender is passed\n      // solium-disable-next-line security/no-low-level-calls\n      mstore(add(_data, 68), _amount)    // ensure correct amount is passed\n    }\n    // solium-disable-next-line security/no-low-level-calls\n    require(address(this).delegatecall(_data), \"Unable to create request\"); // calls requestData\n  }\n\n  function requestData(\n    address _sender,\n    uint256 _amount,\n    uint256 _version,\n    bytes32 _specId,\n    address _callbackAddress,\n    bytes4 _callbackFunctionId,\n    bytes32 _externalId,\n    bytes _data\n  )\n    public\n    onlyLINK\n  {\n    uint256 internalId = uint256(keccak256(abi.encodePacked(_sender, _externalId)));\n    callbacks[internalId] = Callback(\n      _externalId,\n      _amount,\n      _callbackAddress,\n      _callbackFunctionId,\n      uint64(now.add(5 minutes)));\n    emit RunRequest(\n      _specId,\n      _sender,\n      _amount,\n      internalId,\n      _version,\n      _data);\n  }\n\n  function fulfillData(\n    uint256 _internalId,\n    bytes32 _data\n  )\n    public\n    onlyOwner\n    hasInternalId(_internalId)\n  {\n    Callback memory callback = callbacks[_internalId];\n    withdrawableWei = withdrawableWei.add(callback.amount);\n    delete callbacks[_internalId];\n    // All updates to the oracle's fulfillment should come before calling the\n    // callback(addr+functionId) as it is untrusted.\n    // See: https://solidity.readthedocs.io/en/develop/security-considerations.html#use-the-checks-effects-interactions-pattern\n    callback.addr.call(callback.functionId, callback.externalId, _data); // solium-disable-line security/no-low-level-calls\n  }\n\n  function withdraw(address _recipient, uint256 _amount)\n    public\n    onlyOwner\n    hasAvailableFunds(_amount)\n  {\n    withdrawableWei = withdrawableWei.sub(_amount);\n    LINK.transfer(_recipient, _amount);\n  }\n\n  function cancel(bytes32 _externalId)\n    public\n  {\n    uint256 internalId = uint256(keccak256(abi.encodePacked(msg.sender, _externalId)));\n    require(msg.sender == callbacks[internalId].addr, \"Must be called from requester\");\n    require(callbacks[internalId].cancelExpiration <= now, \"Request is not expired\");\n    Callback memory cb = callbacks[internalId];\n    require(LINK.transfer(cb.addr, cb.amount), \"Unable to transfer\");\n    delete callbacks[internalId];\n    emit CancelRequest(internalId);\n  }\n\n  // MODIFIERS\n\n  modifier hasAvailableFunds(uint256 _amount) {\n    require(withdrawableWei >= _amount.add(oneForConsistentGasCost), \"Amount requested is greater than withdrawable balance\");\n    _;\n  }\n\n  modifier hasInternalId(uint256 _internalId) {\n    require(callbacks[_internalId].addr != address(0), \"Must have a valid internalId\");\n    _;\n  }\n\n  modifier onlyLINK() {\n    require(msg.sender == address(LINK), \"Must use LINK token\");\n    _;\n  }\n\n  bytes4 constant private permittedFunc = bytes4(keccak256(\"requestData(address,uint256,uint256,bytes32,address,bytes4,bytes32,bytes)\"));\n\n  modifier permittedFunctionsForLINK() {\n    bytes4[1] memory funcSelector;\n    assembly {\n      // solium-disable-next-line security/no-low-level-calls\n      calldatacopy(funcSelector, 132, 4) // grab function selector from calldata\n    }\n    require(funcSelector[0] == permittedFunc, \"Must use whitelisted functions\");\n    _;\n  }\n\n}\n",
  "sourcePath": "chainlink/solidity/contracts/Oracle.sol",
  "compiler": {
    "name": "solc",
    "version": "0.4.24+commit.e67f0147.Emscripten.clang"
  },
  "schemaVersion": "2.0.1",
  "updatedAt": "2018-10-07T14:59:12.190Z"
}